:020000040000FA
:100000000C9462000C948D040C9466040C948A0089
:100010000C948A000C948A000C948A000C948A0038
:100020000C948A000C948A000C948A000C94B404FA
:100030000C948A000C948A000C948A000C948A0018
:100040000C941C040C948A000C94EA030C94C403D2
:100050000C948A000C948A000C948A000C948A00F8
:100060000C948A000C948A000000000024002700F1
:100070002A0000000000250028002B0000000000DE
:1000800023002600290004040404040404040202DA
:100090000202020203030303030301020408102007
:1000A0004080010204081020010204081020000012
:1000B0000008000201000003040700000000000027
:1000C0000000700511241FBECFEFD8E0DEBFCDBF0A
:1000D00011E0A0E0B1E0EAE2F1E102C005900D928A
:1000E000A433B107D9F722E0A4E3B1E001C01D9227
:1000F000A530B207E1F710E0C2E6D0E004C02197D6
:10010000FE010E948D08C136D107C9F70E94CD05B6
:100110000C9493080C940000CF92DF92EF92FF9220
:10012000DC01A03282E0B807D4F5A53BB10514F09C
:10013000A4EBB0E04091030228E830E0241B310931
:1001400047FD3395220F331F220F331F6901330FF1
:10015000EE08FF084091040228E532E0241B310933
:1001600047FD3395220F331F220F331F032E000C40
:10017000440B550B2C193D094E095F09B7FF02C00E
:10018000B0E0A0E00E94480824EB30E040E050E0FE
:100190000E941E08C20ED31EE41EF51ED601E09179
:1001A0000202EC3080F52091030288E890E0821B87
:1001B000910927FD9395880F991F880F991FA817FC
:1001C000B90784F02091040288E592E0821B91092E
:1001D00027FD9395880F991F880F991FA817B907B6
:1001E0000CF4CD010297880F991F4FB7F8942E2F6A
:1001F00030E0F901EE0FFF1FE20FF31FE352FE4F55
:10020000928381834FBFFF90EF90DF90CF9008954E
:100210008F929F92AF92BF92CF92DF92EF92FF9216
:100220008091040258E5C52E52E0D52EC81AD10897
:1002300087FDD394CC0CDD1CCC0CDD1C0D2C000CEC
:10024000EE08FF088091030278E8872E912C881A27
:10025000910887FD9394880C991C880C991C092C93
:10026000000CAA08BB08809102028F3FD1F190E0F8
:10027000FC01EE0FFF1FE80FF91FE352FE4F8181D3
:10028000928133E0880F991F3A95E1F7B0E0A0E042
:1002900044E0B595A795979587954A95D1F702962D
:1002A0009C012F5F3F4F032E000C440B550B281968
:1002B00039094A095B09A4EBB0E00E943D08A70197
:1002C0009601281939094A095B090E941E08C901CB
:1002D000FF90EF90DF90CF90BF90AF909F908F9066
:1002E000089590E080E0DCCF10923F0110923E0133
:1002F0008AE590E00C948C00AF92BF92CF92DF928F
:10030000EF92FF920F931F93CF93DF936C017B01CA
:100310008B01040F151FEB015E01AE18BF08C0175B
:10032000D10759F06991D601ED91FC910190F081CE
:10033000E02DC6010995892B79F7C501DF91CF9191
:100340001F910F91FF90EF90DF90CF90BF90AF90F3
:100350000895FC01538D448D252F30E0842F90E0CB
:10036000821B930B541710F0CF96089501970895B0
:10037000FC01918D828D981761F0A28DAE0FBF2F79
:10038000B11D5D968C91928D9F5F9F73928F90E0CF
:1003900008958FEF9FEF0895FC01918D828D98173E
:1003A00031F0828DE80FF11D858D90E008958FEF7B
:1003B0009FEF0895FC01918D228D892F90E0805C44
:1003C0009F4F821B91098F739927089580E491E0D4
:1003D0000E94DA0121E0892B09F420E0822F0895A0
:1003E00080E090E0892B29F00E94E60181110C94B5
:1003F00000000895FC01A48DA80FB92FB11DA35AC8
:10040000BF4F2C91848D90E001968F739927848F34
:10041000A689B7892C93A089B1898C918370806457
:100420008C93938D848D981306C00288F389E02DF8
:1004300080818F7D80830895EF92FF920F931F93A9
:10044000CF93DF93EC0181E0888F9B8D8C8D981387
:100450001AC0E889F989808185FF15C09FB7F89493
:10046000EE89FF896083E889F989808183708064DF
:1004700080839FBF81E090E0DF91CF911F910F912A
:10048000FF90EF900895F62E0B8D10E00F5F1F4F39
:100490000F731127E02E8C8D8E110CC00FB607FC48
:1004A000FACFE889F989808185FFF5CFCE010E94D6
:1004B000FA01F1CFEB8DEC0FFD2FF11DE35AFF4F49
:1004C000F0829FB7F8940B8FEA89FB898081806264
:1004D000CFCFCF93DF93EC01888D8823B9F0AA8921
:1004E000BB89E889F9898C9185FD03C0808186FDEF
:1004F0000DC00FB607FCF7CF8C9185FFF2CF80813E
:1005000085FFEDCFCE010E94FA01E9CFDF91CF91B7
:100510000895833081F028F4813099F08230A9F079
:1005200008958730A9F08830C9F08430B1F4809103
:1005300080008F7D03C0809180008F778093800042
:10054000089584B58F7784BD089584B58F7DFBCFE2
:100550008091B0008F778093B00008958091B000B3
:100560008F7DF9CFCF93DF93282F30E0F901E2554B
:10057000FF4F8491F901E656FF4FD491F901EA57F4
:10058000FF4FC491CC23A1F081110E948902EC2F6E
:10059000F0E0EE0FFF1FE458FF4FA591B491EC91EE
:1005A000ED2381E090E009F480E0DF91CF910895A0
:1005B00080E090E0FACF1F93CF93DF93282F30E0B5
:1005C000F901E255FF4F8491F901E656FF4FD491AE
:1005D000F901EA57FF4FC491CC23A9F0162F8111DE
:1005E0000E948902EC2FF0E0EE0FFF1FEE58FF4F44
:1005F000A591B4918FB7F894EC91111108C0D095E2
:10060000DE23DC938FBFDF91CF911F910895DE2B06
:10061000F8CFCF93DF9390E0FC01E656FF4F249193
:100620008A579F4FFC0184918823D1F090E0880F76
:10063000991FFC01E859FF4FA591B491FC01EE58B8
:10064000FF4FC591D49161110EC09FB7F8948C9162
:10065000E22FE0958E238C932881E223E8839FBFCD
:10066000DF91CF9108958FB7F894EC91E22BEC9342
:100670008FBFF6CF3FB7F89480913A0190913B013C
:10068000A0913C01B0913D0126B5A89B05C02F3F2C
:1006900019F00196A11DB11D3FBFBA2FA92F982FA8
:1006A0008827BC01CD01620F711D811D911D42E0A3
:1006B000660F771F881F991F4A95D1F708950895EF
:1006C000FC0101900020E9F73197AF01481B590B5D
:1006D000BC0180E491E00C947C018F929F92AF92D8
:1006E000BF920F931F93CF93DF93CDB7DEB7A19740
:1006F0000FB6F894DEBF0FBECDBF19A2423008F48A
:100700004AE08E010F5D1F4F842E912CB12CA12C3D
:10071000A50194010E945008E62FB901CA01EA30F0
:10072000F4F4E05DD801EE938D01232B242B252BCF
:1007300079F790E080E0109719F0CD010E946003F6
:10074000A1960FB6F894DEBF0FBECDBFDF91CF915B
:100750001F910F91BF90AF909F908F900895E95C8B
:10076000E1CFCF93DF93BC01990F880B990B4AE03F
:100770000E946D03EC018EE191E00E9460038C0FFA
:100780009D1FDF91CF9108951F920F920FB60F9288
:1007900011242F933F934F935F936F937F938F9386
:1007A0009F93AF93BF93EF93FF9380E491E00E94F8
:1007B000FA01FF91EF91BF91AF919F918F917F913E
:1007C0006F915F914F913F912F910F900FBE0F90BE
:1007D0001F9018951F920F920FB60F9211242F930E
:1007E0008F939F93EF93FF93E0915001F09151010C
:1007F0008081E0915601F091570182FD1BC09081EC
:10080000809159018F5F8F7320915A01821741F0B7
:10081000E0915901F0E0E05CFE4F958F8093590123
:10082000FF91EF919F918F912F910F900FBE0F909D
:100830001F9018958081F4CF1F920F920FB60F92E0
:1008400011242F933F938F939F93AF93BF938091E6
:10085000360190913701A0913801B0913901309162
:10086000350123E0230F2D3758F50196A11DB11D49
:10087000209335018093360190933701A09338017E
:10088000B093390180913A0190913B01A0913C01D4
:10089000B0913D010196A11DB11D80933A01909345
:1008A0003B01A0933C01B0933D01BF91AF919F915B
:1008B0008F913F912F910F900FBE0F901F90189521
:1008C00026E8230F0296A11DB11DD2CF1F920F92D1
:1008D0000FB60F9211242F933F934F935F936F9313
:1008E0007F938F939F93AF93BF93EF93FF93E09189
:1008F0000201F09103010995FF91EF91BF91AF9132
:100900009F918F917F916F915F914F913F912F9127
:100910000F900FBE0F901F9018951F920F920FB659
:100920000F9211242F933F934F935F936F937F9375
:100930008F939F93AF93BF93EF93FF93E091000149
:10094000F09101010995FF91EF91BF91AF919F91B6
:100950008F917F916F915F914F913F912F910F9068
:100960000FBE0F901F9018951F920F920FB60F9207
:1009700011242F933F934F935F936F937F938F93A4
:100980009F93AF93BF93CF93DF93EF93FF938091A8
:100990003401C0910102D0E087FF24C0109285008D
:1009A00010928400809134018F5F80933401809194
:1009B0003401082E000C990B8C179D0724F48091AC
:1009C00034018C30C4F180918400909185000496AC
:1009D00080349C4908F47AC080918400909185000D
:1009E000049676C080913401082E000C990B8C1768
:1009F0009D07C4F6E09134018E2FEE0F990BFC0198
:100A0000EE0FFF1FE80FF91FE352FE4F808186FFB4
:100A1000C9CFE09134018E2FEE0F990BFC01EE0F40
:100A2000FF1FE80FF91FE352FE4F808160E08F73D4
:100A30000E94DB02B7CF2091840030918500E091C5
:100A400034018E2FEE0F990BFC01EE0FFF1FE80F04
:100A5000F91FE352FE4F81819281820F931F909381
:100A6000890080938800E09134018E2FEE0F990B5E
:100A7000FC01EE0FFF1FE80FF91FE352FE4F8081CC
:100A800086FF11C0E09134018E2FEE0F990BFC010F
:100A9000EE0FFF1FE80FF91FE352FE4F808161E068
:100AA0008F730E94DB02FF91EF91DF91CF91BF9195
:100AB000AF919F918F917F916F915F914F913F91F6
:100AC0002F910F900FBE0F901F90189580E49CE916
:100AD00090938900809388008FEF80933401E3CF57
:100AE000109243011092420188EE93E0A0E0B0E042
:100AF0008093440190934501A0934601B093470130
:100B000080E191E0909341018093400185EC90E079
:100B100090934D0180934C0184EC90E090934F01B1
:100B200080934E0180EC90E09093510180935001AE
:100B300081EC90E0909353018093520182EC90E01D
:100B4000909355018093540186EC90E09093570167
:100B5000809356011092590110925A0110925B0134
:100B600010925C01809101028C3098F491E0980F12
:100B7000909301028093020290E0FC01EE0FFF1FB0
:100B8000E80FF91FE352FE4F88EB9BE092838183CD
:100B900008958FEF809302020895789484B582605F
:100BA00084BD84B5816084BD85B5826085BD85B511
:100BB000816085BD80916E00816080936E0010928F
:100BC000810080918100826080938100809181000A
:100BD000816080938100809180008160809380009B
:100BE0008091B10084608093B1008091B0008160F9
:100BF0008093B00080917A00846080937A00809125
:100C00007A00826080937A0080917A00816080937C
:100C10007A0080917A00806880937A001092C100F7
:100C200084E791E090930101809300018091690035
:100C3000836080936900E89A809102028C3008F00A
:100C400051C061E08DE00E94090380910202282FCB
:100C500030E0F901EE0FFF1FE20FF31FE352FE4FEA
:100C60009081907C9D609083109203021092040208
:100C70002CE0622F0E948108829FB001112430E095
:100C800020E0AB01420F531FFA01EE0FFF1FE40FEC
:100C9000F51FE352FE4F908196FD16C02F5F3F4F28
:100CA0002C30310571F781110FC01092800082E065
:100CB000809381001092850010928400B19A8091F7
:100CC0006F00826080936F00E09102028E2F90E0AF
:100CD000FC01EE0FFF1FE80FF91FE352FE4F80816A
:100CE000806480838AE590E00E948C0060E088E068
:100CF0000E94090360E087E00E94090360E086E04B
:100D00000E94090360E082E00E94090360E084E041
:100D10000E94090361E083E00E94090361E08BE027
:100D20000E94090361E08DE00E94090361E083E015
:100D30000E94090360E083E00E94DB0261E08BE037
:100D40000E94090360E08BE00E94DB02E091500109
:100D5000F091510182E08083E0914C01F0914D01CE
:100D60001082E0914E01F0914F0180E1808310925A
:100D70005801E0915401F091550186E08083E091A3
:100D80005201F0915301808180618083E091520192
:100D9000F0915301808188608083E0915201F0914D
:100DA0005301808180688083E0915201F09153016A
:100DB00080818F7D808381E291E00E94600390E0DA
:100DC00080E00E940808682F70E090E080E04AE030
:100DD0000E946D038EE191E00E94600391EBA92EC9
:100DE00090E0B92E2FE7922E30E0232E30E0332E04
:100DF00088E00E94B2027C0187E00E94B2028C016E
:100E000086E00E94B202EC0180910A0190910B01F0
:100E1000892BA1F521E0E216F10481F561E083E080
:100E20000E940903F5018491833009F4CEC050F487
:100E30008130E1F0823009F4C3C060E083E00E94B9
:100E4000DB0218C0873009F4CCC0883009F4D1C067
:100E5000843099F7809180008062809380008FE7D2
:100E600090E090938B0080938A0004C084B58068E2
:100E700084BD97BC8FE790E00E94B1038091080188
:100E800090910901892B79F40130110561F461E039
:100E900083E00E94090361E083E00E94DB028FEFA0
:100EA00090E00E94B1038091060190910701892B87
:100EB00079F4C130D10561F461E083E00E94090357
:100EC00060E083E00E94DB0290E080E00E94B103DA
:100ED000F0920B01E0920A011093090100930801BE
:100EE000D0930701C093060184E00E94B202EC0196
:100EF0008091040190910501892B89F4C130D105BD
:100F000071F490E080E00E94080861E0680F90E0D2
:100F100080E00E941008D0933F01C0933E010E94E0
:100F200008014E970CF06DC080913E0190913F01F9
:100F300091958195910990933F0180933E01009195
:100F40003E0110913F010115110531F00E94080189
:100F5000800F911F0E948C00D0930501C093040163
:100F60000E943A036B017C0184E6482E512C612CCF
:100F7000712C0E943A036C197D098E099F09683E05
:100F8000734081059105A8F3F1E04F1A51086108FB
:100F9000710828EEC20E23E0D21EE11CF11C4114A0
:100FA00051046104710429F72114310409F420CF9C
:100FB0000E94E601882309F41BCF0E94000018CF8D
:100FC00084B5806284BD98BC55CF809180008068D4
:100FD000809380008FE790E0909389008093880051
:100FE00049CF8091B00080688093B0009092B300A8
:100FF00041CF8091B00080628093B0009092B400A5
:1010000039CF0E940801873991050CF08DCF97CF19
:10101000F999FECF92BD81BDF89A992780B50895C0
:10102000262FF999FECF1FBA92BD81BD20BD0FB604
:10103000F894FA9AF99A0FBE01960895052E97FB37
:101040001EF400940E94350857FD07D00E945008F6
:1010500007FC03D04EF40C9435085095409530951C
:1010600021953F4F4F4F5F4F089590958095709514
:1010700061957F4F8F4F9F4F08950E947208A59FE3
:10108000900DB49F900DA49F800D911D1124089583
:10109000B7FF0C943D080E943D08821B930B0895F6
:1010A000A1E21A2EAA1BBB1BFD010DC0AA1FBB1F6C
:1010B000EE1FFF1FA217B307E407F50720F0A21BDE
:1010C000B30BE40BF50B661F771F881F991F1A944B
:1010D00069F760957095809590959B01AC01BD0175
:1010E000CF010895A29FB001B39FC001A39F700DCF
:1010F000811D1124911DB29F700D811D1124911D20
:101100000895991B79E004C0991F961708F0961B63
:10111000881F7A95C9F780950895EE0FFF1F0590F7
:10112000F491E02D0994F894FFCF5F035F03010071
:10113000010001000100000000001C027C01A90167
:101140006902DA01B801CC010D0A00454550524F41
:0E1150004D2E72656164283029203A2000007F
:107E0000112484B714BE81FFF0D085E080938100F7
:107E100082E08093C00088E18093C10086E0809377
:107E2000C20080E18093C4008EE0C9D0259A86E02C
:107E300020E33CEF91E0309385002093840096BBD3
:107E4000B09BFECF1D9AA8958150A9F7CC24DD24C4
:107E500088248394B5E0AB2EA1E19A2EF3E0BF2EE7
:107E6000A2D0813461F49FD0082FAFD0023811F036
:107E7000013811F484E001C083E08DD089C08234E0
:107E800011F484E103C0853419F485E0A6D080C0E4
:107E9000853579F488D0E82EFF2485D0082F10E0AE
:107EA000102F00270E291F29000F111F8ED06801E7
:107EB0006FC0863521F484E090D080E0DECF843638
:107EC00009F040C070D06FD0082F6DD080E0C81688
:107ED00080E7D80618F4F601B7BEE895C0E0D1E017
:107EE00062D089930C17E1F7F0E0CF16F0E7DF06D8
:107EF00018F0F601B7BEE89568D007B600FCFDCFD4
:107F0000A601A0E0B1E02C9130E011968C91119780
:107F100090E0982F8827822B932B1296FA010C0160
:107F200087BEE89511244E5F5F4FF1E0A038BF0790
:107F300051F7F601A7BEE89507B600FCFDCF97BE46
:107F4000E89526C08437B1F42ED02DD0F82E2BD052
:107F50003CD0F601EF2C8F010F5F1F4F84911BD097
:107F6000EA94F801C1F70894C11CD11CFA94CF0C13
:107F7000D11C0EC0853739F428D08EE10CD085E9AC
:107F80000AD08FE07ACF813511F488E018D01DD067
:107F900080E101D065CF982F8091C00085FFFCCF94
:107FA0009093C60008958091C00087FFFCCF809118
:107FB000C00084FD01C0A8958091C6000895E0E648
:107FC000F0E098E1908380830895EDDF803219F02E
:107FD00088E0F5DFFFCF84E1DECF1F93182FE3DFCA
:107FE0001150E9F7F2DF1F91089580E0E8DFEE27F6
:047FF000FF270994CA
:027FFE00040479
:00000001FF
